{
  "contractName": "registry",
  "abi": [
    {
      "constant": true,
      "inputs": [],
      "name": "land_owner",
      "outputs": [
        {
          "name": "",
          "type": "address"
        }
      ],
      "payable": false,
      "stateMutability": "view",
      "type": "function"
    },
    {
      "constant": true,
      "inputs": [],
      "name": "area_in_meter_square",
      "outputs": [
        {
          "name": "",
          "type": "uint256"
        }
      ],
      "payable": false,
      "stateMutability": "view",
      "type": "function"
    },
    {
      "constant": true,
      "inputs": [],
      "name": "registrar_address",
      "outputs": [
        {
          "name": "",
          "type": "address"
        }
      ],
      "payable": false,
      "stateMutability": "view",
      "type": "function"
    },
    {
      "constant": true,
      "inputs": [],
      "name": "longitude",
      "outputs": [
        {
          "name": "",
          "type": "uint256"
        }
      ],
      "payable": false,
      "stateMutability": "view",
      "type": "function"
    },
    {
      "constant": true,
      "inputs": [],
      "name": "lattitude",
      "outputs": [
        {
          "name": "",
          "type": "uint256"
        }
      ],
      "payable": false,
      "stateMutability": "view",
      "type": "function"
    },
    {
      "constant": true,
      "inputs": [],
      "name": "price",
      "outputs": [
        {
          "name": "",
          "type": "uint256"
        }
      ],
      "payable": false,
      "stateMutability": "view",
      "type": "function"
    },
    {
      "constant": true,
      "inputs": [],
      "name": "admin",
      "outputs": [
        {
          "name": "",
          "type": "address"
        }
      ],
      "payable": false,
      "stateMutability": "view",
      "type": "function"
    },
    {
      "inputs": [
        {
          "name": "_admin",
          "type": "address"
        },
        {
          "name": "_registrar_address",
          "type": "address"
        }
      ],
      "payable": false,
      "stateMutability": "nonpayable",
      "type": "constructor"
    },
    {
      "anonymous": false,
      "inputs": [
        {
          "indexed": false,
          "name": "OwnerName",
          "type": "string"
        },
        {
          "indexed": false,
          "name": "price",
          "type": "uint256"
        }
      ],
      "name": "registryAdded",
      "type": "event"
    },
    {
      "anonymous": false,
      "inputs": [
        {
          "indexed": false,
          "name": "digitalFingerPrint",
          "type": "string"
        },
        {
          "indexed": false,
          "name": "signature",
          "type": "string"
        },
        {
          "indexed": false,
          "name": "timestamp",
          "type": "uint256"
        }
      ],
      "name": "SignatureAdded",
      "type": "event"
    },
    {
      "constant": false,
      "inputs": [
        {
          "name": "_land_owner",
          "type": "address"
        },
        {
          "name": "_price",
          "type": "uint256"
        },
        {
          "name": "_lat",
          "type": "uint256"
        },
        {
          "name": "_longitude",
          "type": "uint256"
        },
        {
          "name": "_area_in_met_square",
          "type": "uint256"
        }
      ],
      "name": "setRegistryDetails",
      "outputs": [],
      "payable": false,
      "stateMutability": "nonpayable",
      "type": "function"
    },
    {
      "constant": false,
      "inputs": [
        {
          "name": "digitalFingerPrint",
          "type": "string"
        },
        {
          "name": "signature",
          "type": "string"
        }
      ],
      "name": "addSignature",
      "outputs": [],
      "payable": false,
      "stateMutability": "nonpayable",
      "type": "function"
    },
    {
      "constant": true,
      "inputs": [
        {
          "name": "digitalFingerPrint",
          "type": "string"
        }
      ],
      "name": "getSignature",
      "outputs": [
        {
          "name": "",
          "type": "string"
        }
      ],
      "payable": false,
      "stateMutability": "view",
      "type": "function"
    },
    {
      "constant": false,
      "inputs": [
        {
          "name": "newAdmin",
          "type": "address"
        }
      ],
      "name": "transferOwnership",
      "outputs": [],
      "payable": false,
      "stateMutability": "nonpayable",
      "type": "function"
    }
  ],
  "bytecode": "0x608060405234801561001057600080fd5b50604051604080610af3833981018060405281019080805190602001909291908051906020019092919050505080600660006101000a81548173ffffffffffffffffffffffffffffffffffffffff021916908373ffffffffffffffffffffffffffffffffffffffff16021790555081600560006101000a81548173ffffffffffffffffffffffffffffffffffffffff021916908373ffffffffffffffffffffffffffffffffffffffff1602179055505050610a23806100d06000396000f3006080604052600436106100af576000357c0100000000000000000000000000000000000000000000000000000000900463ffffffff1680630a0c5e0d146100b45780632cbd12ed146101635780633742aa05146101ba5780634a866713146101e55780634f651f6214610250578063589af69c146102a75780635e959287146102d257806396ea5a10146103b4578063a035b1fe146103df578063f2fde38b1461040a578063f851a4401461044d575b600080fd5b3480156100c057600080fd5b50610161600480360381019080803590602001908201803590602001908080601f0160208091040260200160405190810160405280939291908181526020018383808284378201915050505050509192919290803590602001908201803590602001908080601f01602080910402602001604051908101604052809392919081815260200183838082843782019150505050505091929192905050506104a4565b005b34801561016f57600080fd5b5061017861064b565b604051808273ffffffffffffffffffffffffffffffffffffffff1673ffffffffffffffffffffffffffffffffffffffff16815260200191505060405180910390f35b3480156101c657600080fd5b506101cf610670565b6040518082815260200191505060405180910390f35b3480156101f157600080fd5b5061024e600480360381019080803573ffffffffffffffffffffffffffffffffffffffff16906020019092919080359060200190929190803590602001909291908035906020019092919080359060200190929190505050610676565b005b34801561025c57600080fd5b50610265610735565b604051808273ffffffffffffffffffffffffffffffffffffffff1673ffffffffffffffffffffffffffffffffffffffff16815260200191505060405180910390f35b3480156102b357600080fd5b506102bc61075b565b6040518082815260200191505060405180910390f35b3480156102de57600080fd5b50610339600480360381019080803590602001908201803590602001908080601f0160208091040260200160405190810160405280939291908181526020018383808284378201915050505050509192919290505050610761565b6040518080602001828103825283818151815260200191508051906020019080838360005b8381101561037957808201518184015260208101905061035e565b50505050905090810190601f1680156103a65780820380516001836020036101000a031916815260200191505b509250505060405180910390f35b3480156103c057600080fd5b506103c9610880565b6040518082815260200191505060405180910390f35b3480156103eb57600080fd5b506103f4610886565b6040518082815260200191505060405180910390f35b34801561041657600080fd5b5061044b600480360381019080803573ffffffffffffffffffffffffffffffffffffffff16906020019092919050505061088c565b005b34801561045957600080fd5b5061046261092c565b604051808273ffffffffffffffffffffffffffffffffffffffff1673ffffffffffffffffffffffffffffffffffffffff16815260200191505060405180910390f35b8060076000846040518082805190602001908083835b6020831015156104df57805182526020820191506020810190506020830392506104ba565b6001836020036101000a0380198251168184511680821785525050505050509050019150506040518091039020600019166000191681526020019081526020016000209080519060200190610535929190610952565b507fd7c4f9d3380f85f883d61ae5820d4912d3c1c06b49c35085feb3606f5af4b2db828242604051808060200180602001848152602001838103835286818151815260200191508051906020019080838360005b838110156105a4578082015181840152602081019050610589565b50505050905090810190601f1680156105d15780820380516001836020036101000a031916815260200191505b50838103825285818151815260200191508051906020019080838360005b8381101561060a5780820151818401526020810190506105ef565b50505050905090810190601f1680156106375780820380516001836020036101000a031916815260200191505b509550505050505060405180910390a15050565b6000809054906101000a900473ffffffffffffffffffffffffffffffffffffffff1681565b60035481565b600660009054906101000a900473ffffffffffffffffffffffffffffffffffffffff1673ffffffffffffffffffffffffffffffffffffffff163373ffffffffffffffffffffffffffffffffffffffff161415156106d257600080fd5b846000806101000a81548173ffffffffffffffffffffffffffffffffffffffff021916908373ffffffffffffffffffffffffffffffffffffffff160217905550836004819055508260018190555081600281905550806003819055505050505050565b600660009054906101000a900473ffffffffffffffffffffffffffffffffffffffff1681565b60025481565b606060076000836040518082805190602001908083835b60208310151561079d5780518252602082019150602081019050602083039250610778565b6001836020036101000a0380198251168184511680821785525050505050509050019150506040518091039020600019166000191681526020019081526020016000208054600181600116156101000203166002900480601f0160208091040260200160405190810160405280929190818152602001828054600181600116156101000203166002900480156108745780601f1061084957610100808354040283529160200191610874565b820191906000526020600020905b81548152906001019060200180831161085757829003601f168201915b50505050509050919050565b60015481565b60045481565b600560009054906101000a900473ffffffffffffffffffffffffffffffffffffffff1673ffffffffffffffffffffffffffffffffffffffff163373ffffffffffffffffffffffffffffffffffffffff161415156108e857600080fd5b80600560006101000a81548173ffffffffffffffffffffffffffffffffffffffff021916908373ffffffffffffffffffffffffffffffffffffffff16021790555050565b600560009054906101000a900473ffffffffffffffffffffffffffffffffffffffff1681565b828054600181600116156101000203166002900490600052602060002090601f016020900481019282601f1061099357805160ff19168380011785556109c1565b828001600101855582156109c1579182015b828111156109c05782518255916020019190600101906109a5565b5b5090506109ce91906109d2565b5090565b6109f491905b808211156109f05760008160009055506001016109d8565b5090565b905600a165627a7a723058203d421e02111d983a197e51d2515bbf57b8c0994e4a564991735a17587027a0600029",
  "source": "\npragma solidity ^0.4.20;\n\ncontract registry {\n    address public land_owner;\n    uint256  public lattitude;\n    uint256  public longitude;\n    uint256 public area_in_meter_square;\n    uint256 public price;\n    address public admin;\n    address public registrar_address;\n    \n    \n    event registryAdded(string OwnerName, uint256 price);\n    event SignatureAdded (string digitalFingerPrint , string signature , uint256 timestamp);\n     \n    mapping (bytes32 => string ) fingerprintSignatureMapping;   \n    \n    modifier isAdmin() {\n        require (msg.sender == admin);\n        _;\n    }\n    \n    modifier isRegistar(){\n      require(msg.sender==registrar_address);\n      _;\n    }\n  constructor(address _admin,address _registrar_address ) public {\n        registrar_address = _registrar_address;\n        admin=_admin;\n      \n    }\n    \n    function setRegistryDetails(\n      address _land_owner, \n      uint256 _price,\n      uint256 _lat, \n      uint256 _longitude,\n      uint256 _area_in_met_square\n      ) public isRegistar() {\n        land_owner = _land_owner;\n        price = _price;\n        lattitude = _lat;\n        longitude=_longitude;\n        area_in_meter_square=_area_in_met_square;\n    }\n  \n    \n     function addSignature(string digitalFingerPrint , string signature) public  {\n        fingerprintSignatureMapping[keccak256(digitalFingerPrint)] = signature;\n    emit    SignatureAdded(digitalFingerPrint , signature, now );\n    }\n    \n       function getSignature(string digitalFingerPrint) public constant returns (string){\n        return fingerprintSignatureMapping[keccak256(digitalFingerPrint)] ;\n   }\n\n\n   \n   function transferOwnership(address newAdmin) public isAdmin {\n       admin = newAdmin;\n   }\n}\n",
  "sourcePath": "/home/saurabh/Desktop/Work/IDE/Blockchain/truffle/registry/contracts/registry.sol",
  "compiler": {
    "name": "solc",
    "version": "0.4.23+commit.124ca40d.Emscripten.clang"
  },
  "schemaVersion": "2.0.0",
  "updatedAt": "2018-06-28T21:29:17.123Z"
}